{
  "_format": "hh-sol-artifact-1",
  "contractName": "DestinationOApp",
  "sourceName": "contracts/DestinationOApp.sol",
  "abi": [
    {
      "inputs": [
        {
          "internalType": "address",
          "name": "_endpoint",
          "type": "address"
        }
      ],
      "stateMutability": "nonpayable",
      "type": "constructor"
    },
    {
      "inputs": [],
      "name": "InvalidDelegate",
      "type": "error"
    },
    {
      "inputs": [],
      "name": "InvalidEndpointCall",
      "type": "error"
    },
    {
      "inputs": [
        {
          "internalType": "uint32",
          "name": "eid",
          "type": "uint32"
        }
      ],
      "name": "NoPeer",
      "type": "error"
    },
    {
      "inputs": [
        {
          "internalType": "address",
          "name": "addr",
          "type": "address"
        }
      ],
      "name": "OnlyEndpoint",
      "type": "error"
    },
    {
      "inputs": [
        {
          "internalType": "uint32",
          "name": "eid",
          "type": "uint32"
        },
        {
          "internalType": "bytes32",
          "name": "sender",
          "type": "bytes32"
        }
      ],
      "name": "OnlyPeer",
      "type": "error"
    },
    {
      "inputs": [
        {
          "internalType": "address",
          "name": "owner",
          "type": "address"
        }
      ],
      "name": "OwnableInvalidOwner",
      "type": "error"
    },
    {
      "inputs": [
        {
          "internalType": "address",
          "name": "account",
          "type": "address"
        }
      ],
      "name": "OwnableUnauthorizedAccount",
      "type": "error"
    },
    {
      "anonymous": false,
      "inputs": [
        {
          "indexed": false,
          "internalType": "string",
          "name": "message",
          "type": "string"
        },
        {
          "indexed": false,
          "internalType": "uint32",
          "name": "senderEid",
          "type": "uint32"
        },
        {
          "indexed": false,
          "internalType": "bytes32",
          "name": "sender",
          "type": "bytes32"
        },
        {
          "indexed": false,
          "internalType": "uint64",
          "name": "nonce",
          "type": "uint64"
        }
      ],
      "name": "MessageReceived",
      "type": "event"
    },
    {
      "anonymous": false,
      "inputs": [
        {
          "indexed": true,
          "internalType": "address",
          "name": "previousOwner",
          "type": "address"
        },
        {
          "indexed": true,
          "internalType": "address",
          "name": "newOwner",
          "type": "address"
        }
      ],
      "name": "OwnershipTransferred",
      "type": "event"
    },
    {
      "anonymous": false,
      "inputs": [
        {
          "indexed": false,
          "internalType": "uint32",
          "name": "eid",
          "type": "uint32"
        },
        {
          "indexed": false,
          "internalType": "bytes32",
          "name": "peer",
          "type": "bytes32"
        }
      ],
      "name": "PeerSet",
      "type": "event"
    },
    {
      "inputs": [
        {
          "components": [
            {
              "internalType": "uint32",
              "name": "srcEid",
              "type": "uint32"
            },
            {
              "internalType": "bytes32",
              "name": "sender",
              "type": "bytes32"
            },
            {
              "internalType": "uint64",
              "name": "nonce",
              "type": "uint64"
            }
          ],
          "internalType": "struct Origin",
          "name": "origin",
          "type": "tuple"
        }
      ],
      "name": "allowInitializePath",
      "outputs": [
        {
          "internalType": "bool",
          "name": "",
          "type": "bool"
        }
      ],
      "stateMutability": "view",
      "type": "function"
    },
    {
      "inputs": [],
      "name": "data",
      "outputs": [
        {
          "internalType": "string",
          "name": "",
          "type": "string"
        }
      ],
      "stateMutability": "view",
      "type": "function"
    },
    {
      "inputs": [],
      "name": "endpoint",
      "outputs": [
        {
          "internalType": "contract ILayerZeroEndpointV2",
          "name": "",
          "type": "address"
        }
      ],
      "stateMutability": "view",
      "type": "function"
    },
    {
      "inputs": [
        {
          "components": [
            {
              "internalType": "uint32",
              "name": "srcEid",
              "type": "uint32"
            },
            {
              "internalType": "bytes32",
              "name": "sender",
              "type": "bytes32"
            },
            {
              "internalType": "uint64",
              "name": "nonce",
              "type": "uint64"
            }
          ],
          "internalType": "struct Origin",
          "name": "",
          "type": "tuple"
        },
        {
          "internalType": "bytes",
          "name": "",
          "type": "bytes"
        },
        {
          "internalType": "address",
          "name": "_sender",
          "type": "address"
        }
      ],
      "name": "isComposeMsgSender",
      "outputs": [
        {
          "internalType": "bool",
          "name": "",
          "type": "bool"
        }
      ],
      "stateMutability": "view",
      "type": "function"
    },
    {
      "inputs": [
        {
          "components": [
            {
              "internalType": "uint32",
              "name": "srcEid",
              "type": "uint32"
            },
            {
              "internalType": "bytes32",
              "name": "sender",
              "type": "bytes32"
            },
            {
              "internalType": "uint64",
              "name": "nonce",
              "type": "uint64"
            }
          ],
          "internalType": "struct Origin",
          "name": "_origin",
          "type": "tuple"
        },
        {
          "internalType": "bytes32",
          "name": "_guid",
          "type": "bytes32"
        },
        {
          "internalType": "bytes",
          "name": "_message",
          "type": "bytes"
        },
        {
          "internalType": "address",
          "name": "_executor",
          "type": "address"
        },
        {
          "internalType": "bytes",
          "name": "_extraData",
          "type": "bytes"
        }
      ],
      "name": "lzReceive",
      "outputs": [],
      "stateMutability": "payable",
      "type": "function"
    },
    {
      "inputs": [
        {
          "internalType": "uint32",
          "name": "",
          "type": "uint32"
        },
        {
          "internalType": "bytes32",
          "name": "",
          "type": "bytes32"
        }
      ],
      "name": "nextNonce",
      "outputs": [
        {
          "internalType": "uint64",
          "name": "nonce",
          "type": "uint64"
        }
      ],
      "stateMutability": "view",
      "type": "function"
    },
    {
      "inputs": [],
      "name": "oAppVersion",
      "outputs": [
        {
          "internalType": "uint64",
          "name": "senderVersion",
          "type": "uint64"
        },
        {
          "internalType": "uint64",
          "name": "receiverVersion",
          "type": "uint64"
        }
      ],
      "stateMutability": "view",
      "type": "function"
    },
    {
      "inputs": [],
      "name": "owner",
      "outputs": [
        {
          "internalType": "address",
          "name": "",
          "type": "address"
        }
      ],
      "stateMutability": "view",
      "type": "function"
    },
    {
      "inputs": [
        {
          "internalType": "uint32",
          "name": "eid",
          "type": "uint32"
        }
      ],
      "name": "peers",
      "outputs": [
        {
          "internalType": "bytes32",
          "name": "peer",
          "type": "bytes32"
        }
      ],
      "stateMutability": "view",
      "type": "function"
    },
    {
      "inputs": [],
      "name": "renounceOwnership",
      "outputs": [],
      "stateMutability": "nonpayable",
      "type": "function"
    },
    {
      "inputs": [
        {
          "internalType": "address",
          "name": "_delegate",
          "type": "address"
        }
      ],
      "name": "setDelegate",
      "outputs": [],
      "stateMutability": "nonpayable",
      "type": "function"
    },
    {
      "inputs": [
        {
          "internalType": "uint32",
          "name": "_eid",
          "type": "uint32"
        },
        {
          "internalType": "bytes32",
          "name": "_peer",
          "type": "bytes32"
        }
      ],
      "name": "setPeer",
      "outputs": [],
      "stateMutability": "nonpayable",
      "type": "function"
    },
    {
      "inputs": [
        {
          "internalType": "address",
          "name": "newOwner",
          "type": "address"
        }
      ],
      "name": "transferOwnership",
      "outputs": [],
      "stateMutability": "nonpayable",
      "type": "function"
    }
  ],
  "bytecode": "60a06040526040518060400160405280601481526020017f4e6f7468696e6720726563656976656420796574000000000000000000000000815250600290816100489190610500565b50348015610054575f5ffd5b50604051611b3b380380611b3b8339818101604052810190610076919061062d565b8033335f73ffffffffffffffffffffffffffffffffffffffff168173ffffffffffffffffffffffffffffffffffffffff16036100e9575f6040517f1e4fbdf70000000000000000000000000000000000000000000000000000000081526004016100e09190610667565b60405180910390fd5b6100f88161020260201b60201c565b508173ffffffffffffffffffffffffffffffffffffffff1660808173ffffffffffffffffffffffffffffffffffffffff16815250505f73ffffffffffffffffffffffffffffffffffffffff168173ffffffffffffffffffffffffffffffffffffffff1603610192576040517fb586360400000000000000000000000000000000000000000000000000000000815260040160405180910390fd5b60805173ffffffffffffffffffffffffffffffffffffffff1663ca5eb5e1826040518263ffffffff1660e01b81526004016101cd9190610667565b5f604051808303815f87803b1580156101e4575f5ffd5b505af11580156101f6573d5f5f3e3d5ffd5b50505050505050610680565b5f5f5f9054906101000a900473ffffffffffffffffffffffffffffffffffffffff169050815f5f6101000a81548173ffffffffffffffffffffffffffffffffffffffff021916908373ffffffffffffffffffffffffffffffffffffffff1602179055508173ffffffffffffffffffffffffffffffffffffffff168173ffffffffffffffffffffffffffffffffffffffff167f8be0079c531659141344cd1fd0a4f28419497f9722a3daafe3b4186f6b6457e060405160405180910390a35050565b5f81519050919050565b7f4e487b71000000000000000000000000000000000000000000000000000000005f52604160045260245ffd5b7f4e487b71000000000000000000000000000000000000000000000000000000005f52602260045260245ffd5b5f600282049050600182168061033e57607f821691505b602082108103610351576103506102fa565b5b50919050565b5f819050815f5260205f209050919050565b5f6020601f8301049050919050565b5f82821b905092915050565b5f600883026103b37fffffffffffffffffffffffffffffffffffffffffffffffffffffffffffffffff82610378565b6103bd8683610378565b95508019841693508086168417925050509392505050565b5f819050919050565b5f819050919050565b5f6104016103fc6103f7846103d5565b6103de565b6103d5565b9050919050565b5f819050919050565b61041a836103e7565b61042e61042682610408565b848454610384565b825550505050565b5f5f905090565b610445610436565b610450818484610411565b505050565b5b81811015610473576104685f8261043d565b600181019050610456565b5050565b601f8211156104b85761048981610357565b61049284610369565b810160208510156104a1578190505b6104b56104ad85610369565b830182610455565b50505b505050565b5f82821c905092915050565b5f6104d85f19846008026104bd565b1980831691505092915050565b5f6104f083836104c9565b9150826002028217905092915050565b610509826102c3565b67ffffffffffffffff811115610522576105216102cd565b5b61052c8254610327565b610537828285610477565b5f60209050601f831160018114610568575f8415610556578287015190505b61056085826104e5565b8655506105c7565b601f19841661057686610357565b5f5b8281101561059d57848901518255600182019150602085019450602081019050610578565b868310156105ba57848901516105b6601f8916826104c9565b8355505b6001600288020188555050505b505050505050565b5f5ffd5b5f73ffffffffffffffffffffffffffffffffffffffff82169050919050565b5f6105fc826105d3565b9050919050565b61060c816105f2565b8114610616575f5ffd5b50565b5f8151905061062781610603565b92915050565b5f60208284031215610642576106416105cf565b5b5f61064f84828501610619565b91505092915050565b610661816105f2565b82525050565b5f60208201905061067a5f830184610658565b92915050565b6080516114956106a65f395f81816103210152818161044d015261059801526114955ff3fe6080604052600436106100c1575f3560e01c80637d25a05e1161007e578063bb0b6a5311610058578063bb0b6a5314610240578063ca5eb5e11461027c578063f2fde38b146102a4578063ff7bd03d146102cc576100c1565b80637d25a05e1461019e57806382413eac146101da5780638da5cb5b14610216576100c1565b806313137d65146100c557806317442b70146100e15780633400288b1461010c5780635e280f1114610134578063715018a61461015e57806373d4a13a14610174575b5f5ffd5b6100df60048036038101906100da9190610aac565b610308565b005b3480156100ec575f5ffd5b506100f5610428565b604051610103929190610b85565b60405180910390f35b348015610117575f5ffd5b50610132600480360381019061012d9190610be5565b610435565b005b34801561013f575f5ffd5b5061014861044b565b6040516101559190610c7e565b60405180910390f35b348015610169575f5ffd5b5061017261046f565b005b34801561017f575f5ffd5b50610188610482565b6040516101959190610d07565b60405180910390f35b3480156101a9575f5ffd5b506101c460048036038101906101bf9190610be5565b61050e565b6040516101d19190610d27565b60405180910390f35b3480156101e5575f5ffd5b5061020060048036038101906101fb9190610d40565b610518565b60405161020d9190610dcb565b60405180910390f35b348015610221575f5ffd5b5061022a610552565b6040516102379190610df3565b60405180910390f35b34801561024b575f5ffd5b5061026660048036038101906102619190610e0c565b610579565b6040516102739190610e46565b60405180910390f35b348015610287575f5ffd5b506102a2600480360381019061029d9190610e5f565b61058e565b005b3480156102af575f5ffd5b506102ca60048036038101906102c59190610e5f565b61061f565b005b3480156102d7575f5ffd5b506102f260048036038101906102ed9190610e8a565b6106a3565b6040516102ff9190610dcb565b60405180910390f35b3373ffffffffffffffffffffffffffffffffffffffff167f000000000000000000000000000000000000000000000000000000000000000073ffffffffffffffffffffffffffffffffffffffff161461039857336040517f91ac5e4f00000000000000000000000000000000000000000000000000000000815260040161038f9190610df3565b60405180910390fd5b86602001356103b7885f0160208101906103b29190610e0c565b6106e0565b1461041057865f0160208101906103ce9190610e0c565b87602001356040517fc26bebcc000000000000000000000000000000000000000000000000000000008152600401610407929190610ec4565b60405180910390fd5b61041f87878787878787610751565b50505050505050565b5f5f5f6002915091509091565b61043d6107dd565b6104478282610864565b5050565b7f000000000000000000000000000000000000000000000000000000000000000081565b6104776107dd565b6104805f6108c3565b565b6002805461048f90610f18565b80601f01602080910402602001604051908101604052809291908181526020018280546104bb90610f18565b80156105065780601f106104dd57610100808354040283529160200191610506565b820191905f5260205f20905b8154815290600101906020018083116104e957829003601f168201915b505050505081565b5f5f905092915050565b5f3073ffffffffffffffffffffffffffffffffffffffff168273ffffffffffffffffffffffffffffffffffffffff16149050949350505050565b5f5f5f9054906101000a900473ffffffffffffffffffffffffffffffffffffffff16905090565b6001602052805f5260405f205f915090505481565b6105966107dd565b7f000000000000000000000000000000000000000000000000000000000000000073ffffffffffffffffffffffffffffffffffffffff1663ca5eb5e1826040518263ffffffff1660e01b81526004016105ef9190610df3565b5f604051808303815f87803b158015610606575f5ffd5b505af1158015610618573d5f5f3e3d5ffd5b5050505050565b6106276107dd565b5f73ffffffffffffffffffffffffffffffffffffffff168173ffffffffffffffffffffffffffffffffffffffff1603610697575f6040517f1e4fbdf700000000000000000000000000000000000000000000000000000000815260040161068e9190610df3565b60405180910390fd5b6106a0816108c3565b50565b5f816020013560015f845f0160208101906106be9190610e0c565b63ffffffff1663ffffffff1681526020019081526020015f2054149050919050565b5f5f60015f8463ffffffff1663ffffffff1681526020019081526020015f205490505f5f1b810361074857826040517ff6ff4fb700000000000000000000000000000000000000000000000000000000815260040161073f9190610f48565b60405180910390fd5b80915050919050565b84848101906107609190611089565b6002908161076e9190611270565b507faea7816e58eb8d12abaed092d848d31d6f23fc1d8637f0927689540df45837ce6002885f0160208101906107a49190610e0c565b89602001358a60400160208101906107bc9190611369565b6040516107cc9493929190611415565b60405180910390a150505050505050565b6107e5610984565b73ffffffffffffffffffffffffffffffffffffffff16610803610552565b73ffffffffffffffffffffffffffffffffffffffff161461086257610826610984565b6040517f118cdaa70000000000000000000000000000000000000000000000000000000081526004016108599190610df3565b60405180910390fd5b565b8060015f8463ffffffff1663ffffffff1681526020019081526020015f20819055507f238399d427b947898edb290f5ff0f9109849b1c3ba196a42e35f00c50a54b98b82826040516108b7929190610ec4565b60405180910390a15050565b5f5f5f9054906101000a900473ffffffffffffffffffffffffffffffffffffffff169050815f5f6101000a81548173ffffffffffffffffffffffffffffffffffffffff021916908373ffffffffffffffffffffffffffffffffffffffff1602179055508173ffffffffffffffffffffffffffffffffffffffff168173ffffffffffffffffffffffffffffffffffffffff167f8be0079c531659141344cd1fd0a4f28419497f9722a3daafe3b4186f6b6457e060405160405180910390a35050565b5f33905090565b5f604051905090565b5f5ffd5b5f5ffd5b5f5ffd5b5f606082840312156109b5576109b461099c565b5b81905092915050565b5f819050919050565b6109d0816109be565b81146109da575f5ffd5b50565b5f813590506109eb816109c7565b92915050565b5f5ffd5b5f5ffd5b5f5ffd5b5f5f83601f840112610a1257610a116109f1565b5b8235905067ffffffffffffffff811115610a2f57610a2e6109f5565b5b602083019150836001820283011115610a4b57610a4a6109f9565b5b9250929050565b5f73ffffffffffffffffffffffffffffffffffffffff82169050919050565b5f610a7b82610a52565b9050919050565b610a8b81610a71565b8114610a95575f5ffd5b50565b5f81359050610aa681610a82565b92915050565b5f5f5f5f5f5f5f60e0888a031215610ac757610ac6610994565b5b5f610ad48a828b016109a0565b9750506060610ae58a828b016109dd565b965050608088013567ffffffffffffffff811115610b0657610b05610998565b5b610b128a828b016109fd565b955095505060a0610b258a828b01610a98565b93505060c088013567ffffffffffffffff811115610b4657610b45610998565b5b610b528a828b016109fd565b925092505092959891949750929550565b5f67ffffffffffffffff82169050919050565b610b7f81610b63565b82525050565b5f604082019050610b985f830185610b76565b610ba56020830184610b76565b9392505050565b5f63ffffffff82169050919050565b610bc481610bac565b8114610bce575f5ffd5b50565b5f81359050610bdf81610bbb565b92915050565b5f5f60408385031215610bfb57610bfa610994565b5b5f610c0885828601610bd1565b9250506020610c19858286016109dd565b9150509250929050565b5f819050919050565b5f610c46610c41610c3c84610a52565b610c23565b610a52565b9050919050565b5f610c5782610c2c565b9050919050565b5f610c6882610c4d565b9050919050565b610c7881610c5e565b82525050565b5f602082019050610c915f830184610c6f565b92915050565b5f81519050919050565b5f82825260208201905092915050565b8281835e5f83830152505050565b5f601f19601f8301169050919050565b5f610cd982610c97565b610ce38185610ca1565b9350610cf3818560208601610cb1565b610cfc81610cbf565b840191505092915050565b5f6020820190508181035f830152610d1f8184610ccf565b905092915050565b5f602082019050610d3a5f830184610b76565b92915050565b5f5f5f5f60a08587031215610d5857610d57610994565b5b5f610d65878288016109a0565b945050606085013567ffffffffffffffff811115610d8657610d85610998565b5b610d92878288016109fd565b93509350506080610da587828801610a98565b91505092959194509250565b5f8115159050919050565b610dc581610db1565b82525050565b5f602082019050610dde5f830184610dbc565b92915050565b610ded81610a71565b82525050565b5f602082019050610e065f830184610de4565b92915050565b5f60208284031215610e2157610e20610994565b5b5f610e2e84828501610bd1565b91505092915050565b610e40816109be565b82525050565b5f602082019050610e595f830184610e37565b92915050565b5f60208284031215610e7457610e73610994565b5b5f610e8184828501610a98565b91505092915050565b5f60608284031215610e9f57610e9e610994565b5b5f610eac848285016109a0565b91505092915050565b610ebe81610bac565b82525050565b5f604082019050610ed75f830185610eb5565b610ee46020830184610e37565b9392505050565b7f4e487b71000000000000000000000000000000000000000000000000000000005f52602260045260245ffd5b5f6002820490506001821680610f2f57607f821691505b602082108103610f4257610f41610eeb565b5b50919050565b5f602082019050610f5b5f830184610eb5565b92915050565b5f5ffd5b7f4e487b71000000000000000000000000000000000000000000000000000000005f52604160045260245ffd5b610f9b82610cbf565b810181811067ffffffffffffffff82111715610fba57610fb9610f65565b5b80604052505050565b5f610fcc61098b565b9050610fd88282610f92565b919050565b5f67ffffffffffffffff821115610ff757610ff6610f65565b5b61100082610cbf565b9050602081019050919050565b828183375f83830152505050565b5f61102d61102884610fdd565b610fc3565b90508281526020810184848401111561104957611048610f61565b5b61105484828561100d565b509392505050565b5f82601f8301126110705761106f6109f1565b5b813561108084826020860161101b565b91505092915050565b5f6020828403121561109e5761109d610994565b5b5f82013567ffffffffffffffff8111156110bb576110ba610998565b5b6110c78482850161105c565b91505092915050565b5f819050815f5260205f209050919050565b5f6020601f8301049050919050565b5f82821b905092915050565b5f6008830261112c7fffffffffffffffffffffffffffffffffffffffffffffffffffffffffffffffff826110f1565b61113686836110f1565b95508019841693508086168417925050509392505050565b5f819050919050565b5f61117161116c6111678461114e565b610c23565b61114e565b9050919050565b5f819050919050565b61118a83611157565b61119e61119682611178565b8484546110fd565b825550505050565b5f5f905090565b6111b56111a6565b6111c0818484611181565b505050565b5b818110156111e3576111d85f826111ad565b6001810190506111c6565b5050565b601f821115611228576111f9816110d0565b611202846110e2565b81016020851015611211578190505b61122561121d856110e2565b8301826111c5565b50505b505050565b5f82821c905092915050565b5f6112485f198460080261122d565b1980831691505092915050565b5f6112608383611239565b9150826002028217905092915050565b61127982610c97565b67ffffffffffffffff81111561129257611291610f65565b5b61129c8254610f18565b6112a78282856111e7565b5f60209050601f8311600181146112d8575f84156112c6578287015190505b6112d08582611255565b865550611337565b601f1984166112e6866110d0565b5f5b8281101561130d578489015182556001820191506020850194506020810190506112e8565b8683101561132a5784890151611326601f891682611239565b8355505b6001600288020188555050505b505050505050565b61134881610b63565b8114611352575f5ffd5b50565b5f813590506113638161133f565b92915050565b5f6020828403121561137e5761137d610994565b5b5f61138b84828501611355565b91505092915050565b5f81546113a081610f18565b6113aa8186610ca1565b9450600182165f81146113c457600181146113da5761140c565b60ff19831686528115156020028601935061140c565b6113e3856110d0565b5f5b83811015611404578154818901526001820191506020810190506113e5565b808801955050505b50505092915050565b5f6080820190508181035f83015261142d8187611394565b905061143c6020830186610eb5565b6114496040830185610e37565b6114566060830184610b76565b9594505050505056fea26469706673582212208b26f75f05bf80f3cd7ffa653635e4803022e6b0f3b3adc7aa2ecbc323db860c64736f6c634300081e0033",
  "linkReferences": {},
  "deployedLinkReferences": {}
}