{
  "_format": "hh-sol-artifact-1",
  "contractName": "SourceOApp",
  "sourceName": "contracts/SourceOApp.sol",
  "abi": [
    {
      "inputs": [
        {
          "internalType": "address",
          "name": "_endpoint",
          "type": "address"
        }
      ],
      "stateMutability": "nonpayable",
      "type": "constructor"
    },
    {
      "inputs": [],
      "name": "InvalidDelegate",
      "type": "error"
    },
    {
      "inputs": [],
      "name": "InvalidEndpointCall",
      "type": "error"
    },
    {
      "inputs": [
        {
          "internalType": "uint16",
          "name": "optionType",
          "type": "uint16"
        }
      ],
      "name": "InvalidOptionType",
      "type": "error"
    },
    {
      "inputs": [],
      "name": "LzTokenUnavailable",
      "type": "error"
    },
    {
      "inputs": [
        {
          "internalType": "uint32",
          "name": "eid",
          "type": "uint32"
        }
      ],
      "name": "NoPeer",
      "type": "error"
    },
    {
      "inputs": [
        {
          "internalType": "uint256",
          "name": "msgValue",
          "type": "uint256"
        }
      ],
      "name": "NotEnoughNative",
      "type": "error"
    },
    {
      "inputs": [
        {
          "internalType": "uint32",
          "name": "eid",
          "type": "uint32"
        },
        {
          "internalType": "bytes32",
          "name": "sender",
          "type": "bytes32"
        }
      ],
      "name": "OnlyPeer",
      "type": "error"
    },
    {
      "inputs": [
        {
          "internalType": "address",
          "name": "owner",
          "type": "address"
        }
      ],
      "name": "OwnableInvalidOwner",
      "type": "error"
    },
    {
      "inputs": [
        {
          "internalType": "address",
          "name": "account",
          "type": "address"
        }
      ],
      "name": "OwnableUnauthorizedAccount",
      "type": "error"
    },
    {
      "inputs": [
        {
          "internalType": "uint8",
          "name": "bits",
          "type": "uint8"
        },
        {
          "internalType": "uint256",
          "name": "value",
          "type": "uint256"
        }
      ],
      "name": "SafeCastOverflowedUintDowncast",
      "type": "error"
    },
    {
      "inputs": [
        {
          "internalType": "address",
          "name": "token",
          "type": "address"
        }
      ],
      "name": "SafeERC20FailedOperation",
      "type": "error"
    },
    {
      "anonymous": false,
      "inputs": [
        {
          "indexed": false,
          "internalType": "string",
          "name": "message",
          "type": "string"
        },
        {
          "indexed": false,
          "internalType": "uint32",
          "name": "dstEid",
          "type": "uint32"
        }
      ],
      "name": "MessageSent",
      "type": "event"
    },
    {
      "anonymous": false,
      "inputs": [
        {
          "indexed": true,
          "internalType": "address",
          "name": "previousOwner",
          "type": "address"
        },
        {
          "indexed": true,
          "internalType": "address",
          "name": "newOwner",
          "type": "address"
        }
      ],
      "name": "OwnershipTransferred",
      "type": "event"
    },
    {
      "anonymous": false,
      "inputs": [
        {
          "indexed": false,
          "internalType": "uint32",
          "name": "eid",
          "type": "uint32"
        },
        {
          "indexed": false,
          "internalType": "bytes32",
          "name": "peer",
          "type": "bytes32"
        }
      ],
      "name": "PeerSet",
      "type": "event"
    },
    {
      "inputs": [
        {
          "internalType": "address",
          "name": "_addr",
          "type": "address"
        }
      ],
      "name": "addressToBytes32",
      "outputs": [
        {
          "internalType": "bytes32",
          "name": "",
          "type": "bytes32"
        }
      ],
      "stateMutability": "pure",
      "type": "function"
    },
    {
      "inputs": [
        {
          "internalType": "bytes32",
          "name": "_b",
          "type": "bytes32"
        }
      ],
      "name": "bytes32ToAddress",
      "outputs": [
        {
          "internalType": "address",
          "name": "",
          "type": "address"
        }
      ],
      "stateMutability": "pure",
      "type": "function"
    },
    {
      "inputs": [],
      "name": "endpoint",
      "outputs": [
        {
          "internalType": "contract ILayerZeroEndpointV2",
          "name": "",
          "type": "address"
        }
      ],
      "stateMutability": "view",
      "type": "function"
    },
    {
      "inputs": [],
      "name": "oAppVersion",
      "outputs": [
        {
          "internalType": "uint64",
          "name": "senderVersion",
          "type": "uint64"
        },
        {
          "internalType": "uint64",
          "name": "receiverVersion",
          "type": "uint64"
        }
      ],
      "stateMutability": "view",
      "type": "function"
    },
    {
      "inputs": [],
      "name": "owner",
      "outputs": [
        {
          "internalType": "address",
          "name": "",
          "type": "address"
        }
      ],
      "stateMutability": "view",
      "type": "function"
    },
    {
      "inputs": [
        {
          "internalType": "uint32",
          "name": "eid",
          "type": "uint32"
        }
      ],
      "name": "peers",
      "outputs": [
        {
          "internalType": "bytes32",
          "name": "peer",
          "type": "bytes32"
        }
      ],
      "stateMutability": "view",
      "type": "function"
    },
    {
      "inputs": [
        {
          "internalType": "uint32",
          "name": "_dstEid",
          "type": "uint32"
        },
        {
          "internalType": "string",
          "name": "_message",
          "type": "string"
        },
        {
          "internalType": "bool",
          "name": "_payInLzToken",
          "type": "bool"
        }
      ],
      "name": "quote",
      "outputs": [
        {
          "components": [
            {
              "internalType": "uint256",
              "name": "nativeFee",
              "type": "uint256"
            },
            {
              "internalType": "uint256",
              "name": "lzTokenFee",
              "type": "uint256"
            }
          ],
          "internalType": "struct MessagingFee",
          "name": "fee",
          "type": "tuple"
        }
      ],
      "stateMutability": "view",
      "type": "function"
    },
    {
      "inputs": [],
      "name": "renounceOwnership",
      "outputs": [],
      "stateMutability": "nonpayable",
      "type": "function"
    },
    {
      "inputs": [
        {
          "internalType": "uint32",
          "name": "_dstEid",
          "type": "uint32"
        },
        {
          "internalType": "string",
          "name": "_message",
          "type": "string"
        }
      ],
      "name": "send",
      "outputs": [],
      "stateMutability": "payable",
      "type": "function"
    },
    {
      "inputs": [
        {
          "internalType": "address",
          "name": "_delegate",
          "type": "address"
        }
      ],
      "name": "setDelegate",
      "outputs": [],
      "stateMutability": "nonpayable",
      "type": "function"
    },
    {
      "inputs": [
        {
          "internalType": "uint32",
          "name": "_eid",
          "type": "uint32"
        },
        {
          "internalType": "bytes32",
          "name": "_peer",
          "type": "bytes32"
        }
      ],
      "name": "setPeer",
      "outputs": [],
      "stateMutability": "nonpayable",
      "type": "function"
    },
    {
      "inputs": [
        {
          "internalType": "address",
          "name": "newOwner",
          "type": "address"
        }
      ],
      "name": "transferOwnership",
      "outputs": [],
      "stateMutability": "nonpayable",
      "type": "function"
    }
  ],
  "bytecode": "0x60a0604052610029620f42405f61001a6101f160201b60201c565b61021960201b9092919060201c565b6002908161003791906107a1565b50348015610043575f5ffd5b5060405161244b38038061244b833981810160405281019061006591906108ce565b8033335f73ffffffffffffffffffffffffffffffffffffffff168173ffffffffffffffffffffffffffffffffffffffff16036100d8575f6040517f1e4fbdf70000000000000000000000000000000000000000000000000000000081526004016100cf9190610908565b60405180910390fd5b6100e7816102bd60201b60201c565b508173ffffffffffffffffffffffffffffffffffffffff1660808173ffffffffffffffffffffffffffffffffffffffff16815250505f73ffffffffffffffffffffffffffffffffffffffff168173ffffffffffffffffffffffffffffffffffffffff1603610181576040517fb586360400000000000000000000000000000000000000000000000000000000815260040160405180910390fd5b60805173ffffffffffffffffffffffffffffffffffffffff1663ca5eb5e1826040518263ffffffff1660e01b81526004016101bc9190610908565b5f604051808303815f87803b1580156101d3575f5ffd5b505af11580156101e5573d5f5f3e3d5ffd5b50505050505050610c92565b606060036040516020016102059190610962565b604051602081830303815290604052905090565b606083600361ffff166102355f8361037e60201b90919060201c565b61ffff161461028d576102515f8261037e60201b90919060201c565b6040517f3a51740d000000000000000000000000000000000000000000000000000000008152600401610284919061098b565b60405180910390fd5b5f61029e85856103e360201b60201c565b90506102b28660018361044e60201b60201c565b925050509392505050565b5f5f5f9054906101000a900473ffffffffffffffffffffffffffffffffffffffff169050815f5f6101000a81548173ffffffffffffffffffffffffffffffffffffffff021916908373ffffffffffffffffffffffffffffffffffffffff1602179055508173ffffffffffffffffffffffffffffffffffffffff168173ffffffffffffffffffffffffffffffffffffffff167f8be0079c531659141344cd1fd0a4f28419497f9722a3daafe3b4186f6b6457e060405160405180910390a35050565b5f60028261038c91906109d1565b835110156103cf576040517f08c379a00000000000000000000000000000000000000000000000000000000081526004016103c690610a5e565b60405180910390fd5b5f8260028501015190508091505092915050565b60605f826fffffffffffffffffffffffffffffffff1614610425578282604051602001610411929190610acb565b604051602081830303815290604052610446565b826040516020016104369190610af6565b6040516020818303038152906040525b905092915050565b606083600361ffff1661046a5f8361037e60201b90919060201c565b61ffff16146104c2576104865f8261037e60201b90919060201c565b6040517f3a51740d0000000000000000000000000000000000000000000000000000000081526004016104b9919061098b565b60405180910390fd5b846001806104d6865161050f60201b60201c565b6104e09190610b10565b86866040516020016104f6959493929190610bcd565b6040516020818303038152906040529150509392505050565b5f61ffff801682111561055c576010826040517f6dfcc650000000000000000000000000000000000000000000000000000000008152600401610553929190610c6b565b60405180910390fd5b819050919050565b5f81519050919050565b7f4e487b71000000000000000000000000000000000000000000000000000000005f52604160045260245ffd5b7f4e487b71000000000000000000000000000000000000000000000000000000005f52602260045260245ffd5b5f60028204905060018216806105df57607f821691505b6020821081036105f2576105f161059b565b5b50919050565b5f819050815f5260205f209050919050565b5f6020601f8301049050919050565b5f82821b905092915050565b5f600883026106547fffffffffffffffffffffffffffffffffffffffffffffffffffffffffffffffff82610619565b61065e8683610619565b95508019841693508086168417925050509392505050565b5f819050919050565b5f819050919050565b5f6106a261069d61069884610676565b61067f565b610676565b9050919050565b5f819050919050565b6106bb83610688565b6106cf6106c7826106a9565b848454610625565b825550505050565b5f5f905090565b6106e66106d7565b6106f18184846106b2565b505050565b5b81811015610714576107095f826106de565b6001810190506106f7565b5050565b601f8211156107595761072a816105f8565b6107338461060a565b81016020851015610742578190505b61075661074e8561060a565b8301826106f6565b50505b505050565b5f82821c905092915050565b5f6107795f198460080261075e565b1980831691505092915050565b5f610791838361076a565b9150826002028217905092915050565b6107aa82610564565b67ffffffffffffffff8111156107c3576107c261056e565b5b6107cd82546105c8565b6107d8828285610718565b5f60209050601f831160018114610809575f84156107f7578287015190505b6108018582610786565b865550610868565b601f198416610817866105f8565b5f5b8281101561083e57848901518255600182019150602085019450602081019050610819565b8683101561085b5784890151610857601f89168261076a565b8355505b6001600288020188555050505b505050505050565b5f5ffd5b5f73ffffffffffffffffffffffffffffffffffffffff82169050919050565b5f61089d82610874565b9050919050565b6108ad81610893565b81146108b7575f5ffd5b50565b5f815190506108c8816108a4565b92915050565b5f602082840312156108e3576108e2610870565b5b5f6108f0848285016108ba565b91505092915050565b61090281610893565b82525050565b5f60208201905061091b5f8301846108f9565b92915050565b5f61ffff82169050919050565b5f8160f01b9050919050565b5f6109448261092e565b9050919050565b61095c61095782610921565b61093a565b82525050565b5f61096d828461094b565b60028201915081905092915050565b61098581610921565b82525050565b5f60208201905061099e5f83018461097c565b92915050565b7f4e487b71000000000000000000000000000000000000000000000000000000005f52601160045260245ffd5b5f6109db82610676565b91506109e683610676565b92508282019050808211156109fe576109fd6109a4565b5b92915050565b5f82825260208201905092915050565b7f746f55696e7431365f6f75744f66426f756e64730000000000000000000000005f82015250565b5f610a48601483610a04565b9150610a5382610a14565b602082019050919050565b5f6020820190508181035f830152610a7581610a3c565b9050919050565b5f6fffffffffffffffffffffffffffffffff82169050919050565b5f8160801b9050919050565b5f610aad82610a97565b9050919050565b610ac5610ac082610a7c565b610aa3565b82525050565b5f610ad68285610ab4565b601082019150610ae68284610ab4565b6010820191508190509392505050565b5f610b018284610ab4565b60108201915081905092915050565b5f610b1a82610921565b9150610b2583610921565b9250828201905061ffff811115610b3f57610b3e6109a4565b5b92915050565b5f81905092915050565b8281835e5f83830152505050565b5f610b6782610564565b610b718185610b45565b9350610b81818560208601610b4f565b80840191505092915050565b5f60ff82169050919050565b5f8160f81b9050919050565b5f610baf82610b99565b9050919050565b610bc7610bc282610b8d565b610ba5565b82525050565b5f610bd88288610b5d565b9150610be48287610bb6565b600182019150610bf4828661094b565b600282019150610c048285610bb6565b600182019150610c148284610b5d565b91508190509695505050505050565b5f819050919050565b5f610c46610c41610c3c84610c23565b61067f565b610b8d565b9050919050565b610c5681610c2c565b82525050565b610c6581610676565b82525050565b5f604082019050610c7e5f830185610c4d565b610c8b6020830184610c5c565b9392505050565b60805161177e610ccd5f395f81816102f30152818161038f015281816108500152818161093d01528181610a6b0152610b63015261177e5ff3fe6080604052600436106100a6575f3560e01c80638da5cb5b116100635780638da5cb5b146101b5578063bb0b6a53146101df578063ca5eb5e11461021b578063d3a3bedd14610243578063f2fde38b1461025f578063fbea2e9114610287576100a6565b806317442b70146100aa5780633400288b146100d55780635ced058e146100fd5780635e280f1114610139578063715018a61461016357806382c947b714610179575b5f5ffd5b3480156100b5575f5ffd5b506100be6102c3565b6040516100cc929190610da5565b60405180910390f35b3480156100e0575f5ffd5b506100fb60048036038101906100f69190610e49565b6102d0565b005b348015610108575f5ffd5b50610123600480360381019061011e9190610e87565b6102e6565b6040516101309190610ef1565b60405180910390f35b348015610144575f5ffd5b5061014d6102f1565b60405161015a9190610f65565b60405180910390f35b34801561016e575f5ffd5b50610177610315565b005b348015610184575f5ffd5b5061019f600480360381019061019a9190610fa8565b610328565b6040516101ac9190610fe2565b60405180910390f35b3480156101c0575f5ffd5b506101c9610349565b6040516101d69190610ef1565b60405180910390f35b3480156101ea575f5ffd5b5061020560048036038101906102009190610ffb565b610370565b6040516102129190610fe2565b60405180910390f35b348015610226575f5ffd5b50610241600480360381019061023c9190610fa8565b610385565b005b61025d60048036038101906102589190611162565b610416565b005b34801561026a575f5ffd5b5061028560048036038101906102809190610fa8565b610529565b005b348015610292575f5ffd5b506102ad60048036038101906102a891906111f1565b6105ad565b6040516102ba91906112a2565b60405180910390f35b5f5f60015f915091509091565b6102d8610676565b6102e282826106fd565b5050565b5f815f1c9050919050565b7f000000000000000000000000000000000000000000000000000000000000000081565b61031d610676565b6103265f61075c565b565b5f8173ffffffffffffffffffffffffffffffffffffffff165f1b9050919050565b5f5f5f9054906101000a900473ffffffffffffffffffffffffffffffffffffffff16905090565b6001602052805f5260405f205f915090505481565b61038d610676565b7f000000000000000000000000000000000000000000000000000000000000000073ffffffffffffffffffffffffffffffffffffffff1663ca5eb5e1826040518263ffffffff1660e01b81526004016103e69190610ef1565b5f604051808303815f87803b1580156103fd575f5ffd5b505af115801561040f573d5f5f3e3d5ffd5b5050505050565b61041e610676565b5f81604051602001610430919061131b565b60405160208183030381529060405290506104ea83826002805461045390611368565b80601f016020809104026020016040519081016040528092919081815260200182805461047f90611368565b80156104ca5780601f106104a1576101008083540402835291602001916104ca565b820191905f5260205f20905b8154815290600101906020018083116104ad57829003601f168201915b505050505060405180604001604052803481526020015f8152503361081d565b507f71ad68601a82041bbc9d2b191989148b957e85070fcb61edc57cc095fe605035828460405161051c9291906113a7565b60405180910390a1505050565b610531610676565b5f73ffffffffffffffffffffffffffffffffffffffff168173ffffffffffffffffffffffffffffffffffffffff16036105a1575f6040517f1e4fbdf70000000000000000000000000000000000000000000000000000000081526004016105989190610ef1565b60405180910390fd5b6105aa8161075c565b50565b6105b5610d3c565b5f836040516020016105c7919061131b565b604051602081830303815290604052905061066c8582600280546105ea90611368565b80601f016020809104026020016040519081016040528092919081815260200182805461061690611368565b80156106615780601f1061063857610100808354040283529160200191610661565b820191905f5260205f20905b81548152906001019060200180831161064457829003601f168201915b505050505086610933565b9150509392505050565b61067e610a14565b73ffffffffffffffffffffffffffffffffffffffff1661069c610349565b73ffffffffffffffffffffffffffffffffffffffff16146106fb576106bf610a14565b6040517f118cdaa70000000000000000000000000000000000000000000000000000000081526004016106f29190610ef1565b60405180910390fd5b565b8060015f8463ffffffff1663ffffffff1681526020019081526020015f20819055507f238399d427b947898edb290f5ff0f9109849b1c3ba196a42e35f00c50a54b98b82826040516107509291906113d5565b60405180910390a15050565b5f5f5f9054906101000a900473ffffffffffffffffffffffffffffffffffffffff169050815f5f6101000a81548173ffffffffffffffffffffffffffffffffffffffff021916908373ffffffffffffffffffffffffffffffffffffffff1602179055508173ffffffffffffffffffffffffffffffffffffffff168173ffffffffffffffffffffffffffffffffffffffff167f8be0079c531659141344cd1fd0a4f28419497f9722a3daafe3b4186f6b6457e060405160405180910390a35050565b610825610d54565b5f610832845f0151610a1b565b90505f8460200151111561084e5761084d8460200151610a68565b5b7f000000000000000000000000000000000000000000000000000000000000000073ffffffffffffffffffffffffffffffffffffffff16632637a450826040518060a001604052808b63ffffffff1681526020016108ab8c610bae565b81526020018a81526020018981526020015f8960200151111515815250866040518463ffffffff1660e01b81526004016108e69291906114f5565b60806040518083038185885af1158015610902573d5f5f3e3d5ffd5b50505050506040513d601f19601f82011682018060405250810190610927919061163d565b91505095945050505050565b61093b610d3c565b7f000000000000000000000000000000000000000000000000000000000000000073ffffffffffffffffffffffffffffffffffffffff1663ddc28c586040518060a001604052808863ffffffff16815260200161099789610bae565b8152602001878152602001868152602001851515815250306040518363ffffffff1660e01b81526004016109cc9291906114f5565b6040805180830381865afa1580156109e6573d5f5f3e3d5ffd5b505050506040513d601f19601f82011682018060405250810190610a0a9190611668565b9050949350505050565b5f33905090565b5f813414610a6057346040517f9f704120000000000000000000000000000000000000000000000000000000008152600401610a5791906116a2565b60405180910390fd5b819050919050565b5f7f000000000000000000000000000000000000000000000000000000000000000073ffffffffffffffffffffffffffffffffffffffff1663e4fe1d946040518163ffffffff1660e01b8152600401602060405180830381865afa158015610ad2573d5f5f3e3d5ffd5b505050506040513d601f19601f82011682018060405250810190610af691906116cf565b90505f73ffffffffffffffffffffffffffffffffffffffff168173ffffffffffffffffffffffffffffffffffffffff1603610b5d576040517f5373352a00000000000000000000000000000000000000000000000000000000815260040160405180910390fd5b610baa337f0000000000000000000000000000000000000000000000000000000000000000848473ffffffffffffffffffffffffffffffffffffffff16610c1f909392919063ffffffff16565b5050565b5f5f60015f8463ffffffff1663ffffffff1681526020019081526020015f205490505f5f1b8103610c1657826040517ff6ff4fb7000000000000000000000000000000000000000000000000000000008152600401610c0d91906116fa565b60405180910390fd5b80915050919050565b610c9b848573ffffffffffffffffffffffffffffffffffffffff166323b872dd868686604051602401610c5493929190611713565b604051602081830303815290604052915060e01b6020820180517bffffffffffffffffffffffffffffffffffffffffffffffffffffffff8381831617835250505050610ca1565b50505050565b5f5f60205f8451602086015f885af180610cc0576040513d5f823e3d81fd5b3d92505f519150505f8214610cd9576001811415610cf4565b5f8473ffffffffffffffffffffffffffffffffffffffff163b145b15610d3657836040517f5274afe7000000000000000000000000000000000000000000000000000000008152600401610d2d9190610ef1565b60405180910390fd5b50505050565b60405180604001604052805f81526020015f81525090565b60405180606001604052805f81526020015f67ffffffffffffffff168152602001610d7d610d3c565b81525090565b5f67ffffffffffffffff82169050919050565b610d9f81610d83565b82525050565b5f604082019050610db85f830185610d96565b610dc56020830184610d96565b9392505050565b5f604051905090565b5f5ffd5b5f5ffd5b5f63ffffffff82169050919050565b610df581610ddd565b8114610dff575f5ffd5b50565b5f81359050610e1081610dec565b92915050565b5f819050919050565b610e2881610e16565b8114610e32575f5ffd5b50565b5f81359050610e4381610e1f565b92915050565b5f5f60408385031215610e5f57610e5e610dd5565b5b5f610e6c85828601610e02565b9250506020610e7d85828601610e35565b9150509250929050565b5f60208284031215610e9c57610e9b610dd5565b5b5f610ea984828501610e35565b91505092915050565b5f73ffffffffffffffffffffffffffffffffffffffff82169050919050565b5f610edb82610eb2565b9050919050565b610eeb81610ed1565b82525050565b5f602082019050610f045f830184610ee2565b92915050565b5f819050919050565b5f610f2d610f28610f2384610eb2565b610f0a565b610eb2565b9050919050565b5f610f3e82610f13565b9050919050565b5f610f4f82610f34565b9050919050565b610f5f81610f45565b82525050565b5f602082019050610f785f830184610f56565b92915050565b610f8781610ed1565b8114610f91575f5ffd5b50565b5f81359050610fa281610f7e565b92915050565b5f60208284031215610fbd57610fbc610dd5565b5b5f610fca84828501610f94565b91505092915050565b610fdc81610e16565b82525050565b5f602082019050610ff55f830184610fd3565b92915050565b5f602082840312156110105761100f610dd5565b5b5f61101d84828501610e02565b91505092915050565b5f5ffd5b5f5ffd5b5f601f19601f8301169050919050565b7f4e487b71000000000000000000000000000000000000000000000000000000005f52604160045260245ffd5b6110748261102e565b810181811067ffffffffffffffff821117156110935761109261103e565b5b80604052505050565b5f6110a5610dcc565b90506110b1828261106b565b919050565b5f67ffffffffffffffff8211156110d0576110cf61103e565b5b6110d98261102e565b9050602081019050919050565b828183375f83830152505050565b5f611106611101846110b6565b61109c565b9050828152602081018484840111156111225761112161102a565b5b61112d8482856110e6565b509392505050565b5f82601f83011261114957611148611026565b5b81356111598482602086016110f4565b91505092915050565b5f5f6040838503121561117857611177610dd5565b5b5f61118585828601610e02565b925050602083013567ffffffffffffffff8111156111a6576111a5610dd9565b5b6111b285828601611135565b9150509250929050565b5f8115159050919050565b6111d0816111bc565b81146111da575f5ffd5b50565b5f813590506111eb816111c7565b92915050565b5f5f5f6060848603121561120857611207610dd5565b5b5f61121586828701610e02565b935050602084013567ffffffffffffffff81111561123657611235610dd9565b5b61124286828701611135565b9250506040611253868287016111dd565b9150509250925092565b5f819050919050565b61126f8161125d565b82525050565b604082015f8201516112895f850182611266565b50602082015161129c6020850182611266565b50505050565b5f6040820190506112b55f830184611275565b92915050565b5f81519050919050565b5f82825260208201905092915050565b8281835e5f83830152505050565b5f6112ed826112bb565b6112f781856112c5565b93506113078185602086016112d5565b6113108161102e565b840191505092915050565b5f6020820190508181035f83015261133381846112e3565b905092915050565b7f4e487b71000000000000000000000000000000000000000000000000000000005f52602260045260245ffd5b5f600282049050600182168061137f57607f821691505b6020821081036113925761139161133b565b5b50919050565b6113a181610ddd565b82525050565b5f6040820190508181035f8301526113bf81856112e3565b90506113ce6020830184611398565b9392505050565b5f6040820190506113e85f830185611398565b6113f56020830184610fd3565b9392505050565b61140581610ddd565b82525050565b61141481610e16565b82525050565b5f81519050919050565b5f82825260208201905092915050565b5f61143e8261141a565b6114488185611424565b93506114588185602086016112d5565b6114618161102e565b840191505092915050565b611475816111bc565b82525050565b5f60a083015f8301516114905f8601826113fc565b5060208301516114a3602086018261140b565b50604083015184820360408601526114bb8282611434565b915050606083015184820360608601526114d58282611434565b91505060808301516114ea608086018261146c565b508091505092915050565b5f6040820190508181035f83015261150d818561147b565b905061151c6020830184610ee2565b9392505050565b5f5ffd5b5f8151905061153581610e1f565b92915050565b61154481610d83565b811461154e575f5ffd5b50565b5f8151905061155f8161153b565b92915050565b61156e8161125d565b8114611578575f5ffd5b50565b5f8151905061158981611565565b92915050565b5f604082840312156115a4576115a3611523565b5b6115ae604061109c565b90505f6115bd8482850161157b565b5f8301525060206115d08482850161157b565b60208301525092915050565b5f608082840312156115f1576115f0611523565b5b6115fb606061109c565b90505f61160a84828501611527565b5f83015250602061161d84828501611551565b60208301525060406116318482850161158f565b60408301525092915050565b5f6080828403121561165257611651610dd5565b5b5f61165f848285016115dc565b91505092915050565b5f6040828403121561167d5761167c610dd5565b5b5f61168a8482850161158f565b91505092915050565b61169c8161125d565b82525050565b5f6020820190506116b55f830184611693565b92915050565b5f815190506116c981610f7e565b92915050565b5f602082840312156116e4576116e3610dd5565b5b5f6116f1848285016116bb565b91505092915050565b5f60208201905061170d5f830184611398565b92915050565b5f6060820190506117265f830186610ee2565b6117336020830185610ee2565b6117406040830184611693565b94935050505056fea26469706673582212203993e64ffc15a48f38a9423e6f5922ec2e3c756cbdab8ae97da7d2dd2c484edd64736f6c634300081e0033",
  "linkReferences": {},
  "deployedLinkReferences": {}
}